{
  "_format": "hh-sol-artifact-1",
  "contractName": "SkeletonStephGenesis",
  "sourceName": "contracts/SkeletonStephGenesis.sol",
  "abi": [
    {
      "inputs": [],
      "stateMutability": "nonpayable",
      "type": "constructor"
    },
    {
      "anonymous": false,
      "inputs": [
        {
          "indexed": true,
          "internalType": "address",
          "name": "owner",
          "type": "address"
        },
        {
          "indexed": true,
          "internalType": "address",
          "name": "approved",
          "type": "address"
        },
        {
          "indexed": true,
          "internalType": "uint256",
          "name": "tokenId",
          "type": "uint256"
        }
      ],
      "name": "Approval",
      "type": "event"
    },
    {
      "anonymous": false,
      "inputs": [
        {
          "indexed": true,
          "internalType": "address",
          "name": "owner",
          "type": "address"
        },
        {
          "indexed": true,
          "internalType": "address",
          "name": "operator",
          "type": "address"
        },
        {
          "indexed": false,
          "internalType": "bool",
          "name": "approved",
          "type": "bool"
        }
      ],
      "name": "ApprovalForAll",
      "type": "event"
    },
    {
      "anonymous": false,
      "inputs": [
        {
          "indexed": true,
          "internalType": "address",
          "name": "previousOwner",
          "type": "address"
        },
        {
          "indexed": true,
          "internalType": "address",
          "name": "newOwner",
          "type": "address"
        }
      ],
      "name": "OwnershipTransferred",
      "type": "event"
    },
    {
      "anonymous": false,
      "inputs": [
        {
          "indexed": true,
          "internalType": "address",
          "name": "from",
          "type": "address"
        },
        {
          "indexed": true,
          "internalType": "address",
          "name": "to",
          "type": "address"
        },
        {
          "indexed": true,
          "internalType": "uint256",
          "name": "tokenId",
          "type": "uint256"
        }
      ],
      "name": "Transfer",
      "type": "event"
    },
    {
      "inputs": [],
      "name": "FanboyPass",
      "outputs": [
        {
          "internalType": "address",
          "name": "",
          "type": "address"
        }
      ],
      "stateMutability": "view",
      "type": "function"
    },
    {
      "inputs": [],
      "name": "IMGURL",
      "outputs": [
        {
          "internalType": "string",
          "name": "",
          "type": "string"
        }
      ],
      "stateMutability": "view",
      "type": "function"
    },
    {
      "inputs": [
        {
          "internalType": "uint256",
          "name": "_amount",
          "type": "uint256"
        },
        {
          "internalType": "uint256[]",
          "name": "_ids",
          "type": "uint256[]"
        }
      ],
      "name": "allowlistMint",
      "outputs": [],
      "stateMutability": "payable",
      "type": "function"
    },
    {
      "inputs": [
        {
          "internalType": "address",
          "name": "to",
          "type": "address"
        },
        {
          "internalType": "uint256",
          "name": "tokenId",
          "type": "uint256"
        }
      ],
      "name": "approve",
      "outputs": [],
      "stateMutability": "nonpayable",
      "type": "function"
    },
    {
      "inputs": [
        {
          "internalType": "address",
          "name": "owner",
          "type": "address"
        }
      ],
      "name": "balanceOf",
      "outputs": [
        {
          "internalType": "uint256",
          "name": "",
          "type": "uint256"
        }
      ],
      "stateMutability": "view",
      "type": "function"
    },
    {
      "inputs": [
        {
          "internalType": "uint256",
          "name": "",
          "type": "uint256"
        }
      ],
      "name": "claimed",
      "outputs": [
        {
          "internalType": "bool",
          "name": "",
          "type": "bool"
        }
      ],
      "stateMutability": "view",
      "type": "function"
    },
    {
      "inputs": [
        {
          "internalType": "uint256",
          "name": "tokenId",
          "type": "uint256"
        }
      ],
      "name": "getApproved",
      "outputs": [
        {
          "internalType": "address",
          "name": "",
          "type": "address"
        }
      ],
      "stateMutability": "view",
      "type": "function"
    },
    {
      "inputs": [
        {
          "internalType": "address",
          "name": "owner",
          "type": "address"
        },
        {
          "internalType": "address",
          "name": "operator",
          "type": "address"
        }
      ],
      "name": "isApprovedForAll",
      "outputs": [
        {
          "internalType": "bool",
          "name": "",
          "type": "bool"
        }
      ],
      "stateMutability": "view",
      "type": "function"
    },
    {
      "inputs": [],
      "name": "isPresale",
      "outputs": [
        {
          "internalType": "bool",
          "name": "",
          "type": "bool"
        }
      ],
      "stateMutability": "view",
      "type": "function"
    },
    {
      "inputs": [
        {
          "internalType": "uint256",
          "name": "_amount",
          "type": "uint256"
        }
      ],
      "name": "mint",
      "outputs": [],
      "stateMutability": "payable",
      "type": "function"
    },
    {
      "inputs": [
        {
          "internalType": "uint256",
          "name": "_amount",
          "type": "uint256"
        }
      ],
      "name": "mintSteph",
      "outputs": [],
      "stateMutability": "nonpayable",
      "type": "function"
    },
    {
      "inputs": [],
      "name": "name",
      "outputs": [
        {
          "internalType": "string",
          "name": "",
          "type": "string"
        }
      ],
      "stateMutability": "view",
      "type": "function"
    },
    {
      "inputs": [],
      "name": "owner",
      "outputs": [
        {
          "internalType": "address",
          "name": "",
          "type": "address"
        }
      ],
      "stateMutability": "view",
      "type": "function"
    },
    {
      "inputs": [
        {
          "internalType": "uint256",
          "name": "tokenId",
          "type": "uint256"
        }
      ],
      "name": "ownerOf",
      "outputs": [
        {
          "internalType": "address",
          "name": "",
          "type": "address"
        }
      ],
      "stateMutability": "view",
      "type": "function"
    },
    {
      "inputs": [],
      "name": "price",
      "outputs": [
        {
          "internalType": "uint256",
          "name": "",
          "type": "uint256"
        }
      ],
      "stateMutability": "view",
      "type": "function"
    },
    {
      "inputs": [],
      "name": "renounceOwnership",
      "outputs": [],
      "stateMutability": "nonpayable",
      "type": "function"
    },
    {
      "inputs": [
        {
          "internalType": "address",
          "name": "from",
          "type": "address"
        },
        {
          "internalType": "address",
          "name": "to",
          "type": "address"
        },
        {
          "internalType": "uint256",
          "name": "tokenId",
          "type": "uint256"
        }
      ],
      "name": "safeTransferFrom",
      "outputs": [],
      "stateMutability": "nonpayable",
      "type": "function"
    },
    {
      "inputs": [
        {
          "internalType": "address",
          "name": "from",
          "type": "address"
        },
        {
          "internalType": "address",
          "name": "to",
          "type": "address"
        },
        {
          "internalType": "uint256",
          "name": "tokenId",
          "type": "uint256"
        },
        {
          "internalType": "bytes",
          "name": "data",
          "type": "bytes"
        }
      ],
      "name": "safeTransferFrom",
      "outputs": [],
      "stateMutability": "nonpayable",
      "type": "function"
    },
    {
      "inputs": [
        {
          "internalType": "address",
          "name": "operator",
          "type": "address"
        },
        {
          "internalType": "bool",
          "name": "approved",
          "type": "bool"
        }
      ],
      "name": "setApprovalForAll",
      "outputs": [],
      "stateMutability": "nonpayable",
      "type": "function"
    },
    {
      "inputs": [],
      "name": "startPublicMint",
      "outputs": [],
      "stateMutability": "nonpayable",
      "type": "function"
    },
    {
      "inputs": [],
      "name": "stephReserve",
      "outputs": [
        {
          "internalType": "uint256",
          "name": "",
          "type": "uint256"
        }
      ],
      "stateMutability": "view",
      "type": "function"
    },
    {
      "inputs": [
        {
          "internalType": "bytes4",
          "name": "interfaceId",
          "type": "bytes4"
        }
      ],
      "name": "supportsInterface",
      "outputs": [
        {
          "internalType": "bool",
          "name": "",
          "type": "bool"
        }
      ],
      "stateMutability": "view",
      "type": "function"
    },
    {
      "inputs": [],
      "name": "symbol",
      "outputs": [
        {
          "internalType": "string",
          "name": "",
          "type": "string"
        }
      ],
      "stateMutability": "view",
      "type": "function"
    },
    {
      "inputs": [
        {
          "internalType": "uint256",
          "name": "tokenId",
          "type": "uint256"
        }
      ],
      "name": "tokenURI",
      "outputs": [
        {
          "internalType": "string",
          "name": "",
          "type": "string"
        }
      ],
      "stateMutability": "view",
      "type": "function"
    },
    {
      "inputs": [],
      "name": "totalMint",
      "outputs": [
        {
          "internalType": "uint256",
          "name": "",
          "type": "uint256"
        }
      ],
      "stateMutability": "view",
      "type": "function"
    },
    {
      "inputs": [],
      "name": "totalSupply",
      "outputs": [
        {
          "internalType": "uint256",
          "name": "",
          "type": "uint256"
        }
      ],
      "stateMutability": "view",
      "type": "function"
    },
    {
      "inputs": [
        {
          "internalType": "address",
          "name": "from",
          "type": "address"
        },
        {
          "internalType": "address",
          "name": "to",
          "type": "address"
        },
        {
          "internalType": "uint256",
          "name": "tokenId",
          "type": "uint256"
        }
      ],
      "name": "transferFrom",
      "outputs": [],
      "stateMutability": "nonpayable",
      "type": "function"
    },
    {
      "inputs": [
        {
          "internalType": "address",
          "name": "newOwner",
          "type": "address"
        }
      ],
      "name": "transferOwnership",
      "outputs": [],
      "stateMutability": "nonpayable",
      "type": "function"
    },
    {
      "inputs": [
        {
          "internalType": "uint256",
          "name": "_newPrice",
          "type": "uint256"
        }
      ],
      "name": "updatePrice",
      "outputs": [],
      "stateMutability": "nonpayable",
      "type": "function"
    },
    {
      "inputs": [
        {
          "internalType": "string",
          "name": "_newURI",
          "type": "string"
        }
      ],
      "name": "updateTokenURI",
      "outputs": [],
      "stateMutability": "nonpayable",
      "type": "function"
    },
    {
      "inputs": [
        {
          "internalType": "uint256",
          "name": "_newSupply",
          "type": "uint256"
        }
      ],
      "name": "updateTotalMint",
      "outputs": [],
      "stateMutability": "nonpayable",
      "type": "function"
    },
    {
      "inputs": [
        {
          "internalType": "address payable",
          "name": "withdrawAddress",
          "type": "address"
        }
      ],
      "name": "withdraw",
      "outputs": [],
      "stateMutability": "payable",
      "type": "function"
    }
  ],
  "bytecode": "0x6080604052610834600955601e600a5567010e0198eaee0000600b556001600c60006101000a81548160ff021916908315150217905550604051806080016040528060588152602001620043df60589139600d9080519060200190620000679291906200025f565b5073a8b3751b8fbbef9efefaeded0b920179e104fd65600e60006101000a81548173ffffffffffffffffffffffffffffffffffffffff021916908373ffffffffffffffffffffffffffffffffffffffff160217905550348015620000ca57600080fd5b506040518060400160405280601d81526020017f536b656c65746f6e2053746570682047656e65736973205365726965730000008152506040518060400160405280600d81526020017f53746570682047656e657369730000000000000000000000000000000000000081525081600090805190602001906200014f9291906200025f565b508060019080519060200190620001689291906200025f565b5050506200018b6200017f6200019160201b60201c565b6200019960201b60201c565b62000374565b600033905090565b6000600760009054906101000a900473ffffffffffffffffffffffffffffffffffffffff16905081600760006101000a81548173ffffffffffffffffffffffffffffffffffffffff021916908373ffffffffffffffffffffffffffffffffffffffff1602179055508173ffffffffffffffffffffffffffffffffffffffff168173ffffffffffffffffffffffffffffffffffffffff167f8be0079c531659141344cd1fd0a4f28419497f9722a3daafe3b4186f6b6457e060405160405180910390a35050565b8280546200026d906200030f565b90600052602060002090601f016020900481019282620002915760008555620002dd565b82601f10620002ac57805160ff1916838001178555620002dd565b82800160010185558215620002dd579182015b82811115620002dc578251825591602001919060010190620002bf565b5b509050620002ec9190620002f0565b5090565b5b808211156200030b576000816000905550600101620002f1565b5090565b600060028204905060018216806200032857607f821691505b602082108114156200033f576200033e62000345565b5b50919050565b7f4e487b7100000000000000000000000000000000000000000000000000000000600052602260045260246000fd5b61405b80620003846000396000f3fe6080604052600436106101e35760003560e01c80638d6cc56d11610102578063a22cb46511610095578063d993212811610064578063d99321281461068f578063dbe7e3bd146106ba578063e985e9c5146106f7578063f2fde38b14610734576101e3565b8063a22cb465146105d5578063b88d4fde146105fe578063bab82c2214610627578063c87b56dd14610652576101e3565b806398cd6153116100d157806398cd61531461053c578063a035b1fe14610565578063a0712d6814610590578063a08746f5146105ac576101e3565b80638d6cc56d146104925780638da5cb5b146104bb57806395364a84146104e657806395d89b4114610511576101e3565b806342842e0e1161017a5780636e605107116101495780636e605107146103fc57806370a0823114610427578063715018a61461046457806376c64c621461047b576101e3565b806342842e0e1461034f57806351cff8d91461037857806359a7715a146103945780636352211e146103bf576101e3565b806318160ddd116101b657806318160ddd146102b6578063234784bc146102e157806323b872dd146102fd5780633d6969a714610326576101e3565b806301ffc9a7146101e857806306fdde0314610225578063081812fc14610250578063095ea7b31461028d575b600080fd5b3480156101f457600080fd5b5061020f600480360381019061020a9190612a19565b61075d565b60405161021c9190613113565b60405180910390f35b34801561023157600080fd5b5061023a61083f565b604051610247919061312e565b60405180910390f35b34801561025c57600080fd5b5061027760048036038101906102729190612abc565b6108d1565b60405161028491906130ac565b60405180910390f35b34801561029957600080fd5b506102b460048036038101906102af91906129d9565b610917565b005b3480156102c257600080fd5b506102cb610a2f565b6040516102d89190613490565b60405180910390f35b6102fb60048036038101906102f69190612ae9565b610a40565b005b34801561030957600080fd5b50610324600480360381019061031f91906128c3565b610d8a565b005b34801561033257600080fd5b5061034d60048036038101906103489190612abc565b610dea565b005b34801561035b57600080fd5b50610376600480360381019061037191906128c3565b610e47565b005b610392600480360381019061038d9190612856565b610e67565b005b3480156103a057600080fd5b506103a9610fd3565b6040516103b69190613490565b60405180910390f35b3480156103cb57600080fd5b506103e660048036038101906103e19190612abc565b610fd9565b6040516103f391906130ac565b60405180910390f35b34801561040857600080fd5b5061041161108b565b60405161041e9190613490565b60405180910390f35b34801561043357600080fd5b5061044e600480360381019061044991906127fc565b611091565b60405161045b9190613490565b60405180910390f35b34801561047057600080fd5b50610479611149565b005b34801561048757600080fd5b5061049061115d565b005b34801561049e57600080fd5b506104b960048036038101906104b49190612abc565b611182565b005b3480156104c757600080fd5b506104d0611194565b6040516104dd91906130ac565b60405180910390f35b3480156104f257600080fd5b506104fb6111be565b6040516105089190613113565b60405180910390f35b34801561051d57600080fd5b506105266111d1565b604051610533919061312e565b60405180910390f35b34801561054857600080fd5b50610563600480360381019061055e9190612a73565b611263565b005b34801561057157600080fd5b5061057a611285565b6040516105879190613490565b60405180910390f35b6105aa60048036038101906105a59190612abc565b61128b565b005b3480156105b857600080fd5b506105d360048036038101906105ce9190612abc565b6113d3565b005b3480156105e157600080fd5b506105fc60048036038101906105f79190612999565b6114e1565b005b34801561060a57600080fd5b5061062560048036038101906106209190612916565b6114f7565b005b34801561063357600080fd5b5061063c611559565b604051610649919061312e565b60405180910390f35b34801561065e57600080fd5b5061067960048036038101906106749190612abc565b6115e7565b604051610686919061312e565b60405180910390f35b34801561069b57600080fd5b506106a4611663565b6040516106b191906130ac565b60405180910390f35b3480156106c657600080fd5b506106e160048036038101906106dc9190612abc565b611689565b6040516106ee9190613113565b60405180910390f35b34801561070357600080fd5b5061071e60048036038101906107199190612883565b6116a9565b60405161072b9190613113565b60405180910390f35b34801561074057600080fd5b5061075b600480360381019061075691906127fc565b61173d565b005b60007f80ac58cd000000000000000000000000000000000000000000000000000000007bffffffffffffffffffffffffffffffffffffffffffffffffffffffff1916827bffffffffffffffffffffffffffffffffffffffffffffffffffffffff1916148061082857507f5b5e139f000000000000000000000000000000000000000000000000000000007bffffffffffffffffffffffffffffffffffffffffffffffffffffffff1916827bffffffffffffffffffffffffffffffffffffffffffffffffffffffff1916145b806108385750610837826117c1565b5b9050919050565b60606000805461084e906137c8565b80601f016020809104026020016040519081016040528092919081815260200182805461087a906137c8565b80156108c75780601f1061089c576101008083540402835291602001916108c7565b820191906000526020600020905b8154815290600101906020018083116108aa57829003601f168201915b5050505050905090565b60006108dc8261182b565b6004600083815260200190815260200160002060009054906101000a900473ffffffffffffffffffffffffffffffffffffffff169050919050565b600061092282610fd9565b90508073ffffffffffffffffffffffffffffffffffffffff168373ffffffffffffffffffffffffffffffffffffffff161415610993576040517f08c379a000000000000000000000000000000000000000000000000000000000815260040161098a906133b0565b60405180910390fd5b8073ffffffffffffffffffffffffffffffffffffffff166109b2611876565b73ffffffffffffffffffffffffffffffffffffffff1614806109e157506109e0816109db611876565b6116a9565b5b610a20576040517f08c379a0000000000000000000000000000000000000000000000000000000008152600401610a17906132d0565b60405180910390fd5b610a2a838361187e565b505050565b6000610a3b6008611937565b905090565b600c60009054906101000a900460ff16610a8f576040517f08c379a0000000000000000000000000000000000000000000000000000000008152600401610a8690613430565b60405180910390fd5b80518214610ad2576040517f08c379a0000000000000000000000000000000000000000000000000000000008152600401610ac9906133d0565b60405180910390fd5b60005b81518111610ce9573373ffffffffffffffffffffffffffffffffffffffff16600e60009054906101000a900473ffffffffffffffffffffffffffffffffffffffff1673ffffffffffffffffffffffffffffffffffffffff16636352211e848481518110610b4557610b44613932565b5b60200260200101516040518263ffffffff1660e01b8152600401610b699190613490565b60206040518083038186803b158015610b8157600080fd5b505afa158015610b95573d6000803e3d6000fd5b505050506040513d601f19601f82011682018060405250810190610bb99190612829565b73ffffffffffffffffffffffffffffffffffffffff1614610c0f576040517f08c379a0000000000000000000000000000000000000000000000000000000008152600401610c0690613350565b60405180910390fd5b60001515600f6000848481518110610c2a57610c29613932565b5b6020026020010151815260200190815260200160002060009054906101000a900460ff16151514610c90576040517f08c379a0000000000000000000000000000000000000000000000000000000008152600401610c8790613310565b60405180910390fd5b6001600f6000848481518110610ca957610ca8613932565b5b6020026020010151815260200190815260200160002060006101000a81548160ff0219169083151502179055508080610ce19061382b565b915050610ad5565b5081600b54610cf89190613648565b3414610d39576040517f08c379a0000000000000000000000000000000000000000000000000000000008152600401610d30906131f0565b60405180910390fd5b60005b600183610d4991906136a2565b8111610d85576000610d5b6008611937565b9050610d673382611945565b610d716008611963565b508080610d7d9061382b565b915050610d3c565b505050565b610d9b610d95611876565b82611979565b610dda576040517f08c379a0000000000000000000000000000000000000000000000000000000008152600401610dd190613450565b60405180910390fd5b610de5838383611a0e565b505050565b610df2611c75565b610dfc6008611937565b8111610e3d576040517f08c379a0000000000000000000000000000000000000000000000000000000008152600401610e3490613370565b60405180910390fd5b8060098190555050565b610e62838383604051806020016040528060008152506114f7565b505050565b610e6f611c75565b600073ffffffffffffffffffffffffffffffffffffffff168173ffffffffffffffffffffffffffffffffffffffff161415610edf576040517f08c379a0000000000000000000000000000000000000000000000000000000008152600401610ed6906133f0565b60405180910390fd5b6000471015610f23576040517f08c379a0000000000000000000000000000000000000000000000000000000008152600401610f1a90613270565b60405180910390fd5b60008173ffffffffffffffffffffffffffffffffffffffff1647604051610f4990613097565b60006040518083038185875af1925050503d8060008114610f86576040519150601f19603f3d011682016040523d82523d6000602084013e610f8b565b606091505b5050905080610fcf576040517f08c379a0000000000000000000000000000000000000000000000000000000008152600401610fc690613210565b60405180910390fd5b5050565b60095481565b6000806002600084815260200190815260200160002060009054906101000a900473ffffffffffffffffffffffffffffffffffffffff169050600073ffffffffffffffffffffffffffffffffffffffff168173ffffffffffffffffffffffffffffffffffffffff161415611082576040517f08c379a000000000000000000000000000000000000000000000000000000000815260040161107990613390565b60405180910390fd5b80915050919050565b600a5481565b60008073ffffffffffffffffffffffffffffffffffffffff168273ffffffffffffffffffffffffffffffffffffffff161415611102576040517f08c379a00000000000000000000000000000000000000000000000000000000081526004016110f990613290565b60405180910390fd5b600360008373ffffffffffffffffffffffffffffffffffffffff1673ffffffffffffffffffffffffffffffffffffffff168152602001908152602001600020549050919050565b611151611c75565b61115b6000611cf3565b565b611165611c75565b6000600c60006101000a81548160ff021916908315150217905550565b61118a611c75565b80600b8190555050565b6000600760009054906101000a900473ffffffffffffffffffffffffffffffffffffffff16905090565b600c60009054906101000a900460ff1681565b6060600180546111e0906137c8565b80601f016020809104026020016040519081016040528092919081815260200182805461120c906137c8565b80156112595780601f1061122e57610100808354040283529160200191611259565b820191906000526020600020905b81548152906001019060200180831161123c57829003601f168201915b5050505050905090565b61126b611c75565b80600d9080519060200190611281929190612548565b5050565b600b5481565b600c60009054906101000a900460ff16156112db576040517f08c379a00000000000000000000000000000000000000000000000000000000081526004016112d290613470565b60405180910390fd5b600954816112e96008611937565b6112f391906135c1565b1115611334576040517f08c379a000000000000000000000000000000000000000000000000000000000815260040161132b90613410565b60405180910390fd5b80600b546113429190613648565b3414611383576040517f08c379a000000000000000000000000000000000000000000000000000000000815260040161137a906131f0565b60405180910390fd5b60005b60018261139391906136a2565b81116113cf5760006113a56008611937565b90506113b13382611945565b6113bb6008611963565b5080806113c79061382b565b915050611386565b5050565b6113db611c75565b600954816113e96008611937565b6113f391906135c1565b1115611434576040517f08c379a000000000000000000000000000000000000000000000000000000000815260040161142b90613410565b60405180910390fd5b60005b60018261144491906136a2565b81116114dd576000600a541161148f576040517f08c379a0000000000000000000000000000000000000000000000000000000008152600401611486906132b0565b60405180910390fd5b600061149b6008611937565b90506114a73382611945565b6114b16008611963565b600a60008154809291906114c49061379e565b91905055505080806114d59061382b565b915050611437565b5050565b6114f36114ec611876565b8383611db9565b5050565b611508611502611876565b83611979565b611547576040517f08c379a000000000000000000000000000000000000000000000000000000000815260040161153e90613450565b60405180910390fd5b61155384848484611f26565b50505050565b600d8054611566906137c8565b80601f0160208091040260200160405190810160405280929190818152602001828054611592906137c8565b80156115df5780601f106115b4576101008083540402835291602001916115df565b820191906000526020600020905b8154815290600101906020018083116115c257829003601f168201915b505050505081565b60606115f282611f82565b611631576040517f08c379a000000000000000000000000000000000000000000000000000000000815260040161162890613170565b60405180910390fd5b600d61163c83611fee565b60405160200161164d929190613068565b6040516020818303038152906040529050919050565b600e60009054906101000a900473ffffffffffffffffffffffffffffffffffffffff1681565b600f6020528060005260406000206000915054906101000a900460ff1681565b6000600560008473ffffffffffffffffffffffffffffffffffffffff1673ffffffffffffffffffffffffffffffffffffffff16815260200190815260200160002060008373ffffffffffffffffffffffffffffffffffffffff1673ffffffffffffffffffffffffffffffffffffffff16815260200190815260200160002060009054906101000a900460ff16905092915050565b611745611c75565b600073ffffffffffffffffffffffffffffffffffffffff168173ffffffffffffffffffffffffffffffffffffffff1614156117b5576040517f08c379a00000000000000000000000000000000000000000000000000000000081526004016117ac90613190565b60405180910390fd5b6117be81611cf3565b50565b60007f01ffc9a7000000000000000000000000000000000000000000000000000000007bffffffffffffffffffffffffffffffffffffffffffffffffffffffff1916827bffffffffffffffffffffffffffffffffffffffffffffffffffffffff1916149050919050565b61183481611f82565b611873576040517f08c379a000000000000000000000000000000000000000000000000000000000815260040161186a90613390565b60405180910390fd5b50565b600033905090565b816004600083815260200190815260200160002060006101000a81548173ffffffffffffffffffffffffffffffffffffffff021916908373ffffffffffffffffffffffffffffffffffffffff160217905550808273ffffffffffffffffffffffffffffffffffffffff166118f183610fd9565b73ffffffffffffffffffffffffffffffffffffffff167f8c5be1e5ebec7d5bd14f71427d1e84f3dd0314c0f7b2291e5b200ac8c7c3b92560405160405180910390a45050565b600081600001549050919050565b61195f82826040518060200160405280600081525061214f565b5050565b6001816000016000828254019250508190555050565b60008061198583610fd9565b90508073ffffffffffffffffffffffffffffffffffffffff168473ffffffffffffffffffffffffffffffffffffffff1614806119c757506119c681856116a9565b5b80611a0557508373ffffffffffffffffffffffffffffffffffffffff166119ed846108d1565b73ffffffffffffffffffffffffffffffffffffffff16145b91505092915050565b8273ffffffffffffffffffffffffffffffffffffffff16611a2e82610fd9565b73ffffffffffffffffffffffffffffffffffffffff1614611a84576040517f08c379a0000000000000000000000000000000000000000000000000000000008152600401611a7b906131b0565b60405180910390fd5b600073ffffffffffffffffffffffffffffffffffffffff168273ffffffffffffffffffffffffffffffffffffffff161415611af4576040517f08c379a0000000000000000000000000000000000000000000000000000000008152600401611aeb90613230565b60405180910390fd5b611aff8383836121aa565b611b0a60008261187e565b6001600360008573ffffffffffffffffffffffffffffffffffffffff1673ffffffffffffffffffffffffffffffffffffffff1681526020019081526020016000206000828254611b5a91906136a2565b925050819055506001600360008473ffffffffffffffffffffffffffffffffffffffff1673ffffffffffffffffffffffffffffffffffffffff1681526020019081526020016000206000828254611bb191906135c1565b92505081905550816002600083815260200190815260200160002060006101000a81548173ffffffffffffffffffffffffffffffffffffffff021916908373ffffffffffffffffffffffffffffffffffffffff160217905550808273ffffffffffffffffffffffffffffffffffffffff168473ffffffffffffffffffffffffffffffffffffffff167fddf252ad1be2c89b69c2b068fc378daa952ba7f163c4a11628f55a4df523b3ef60405160405180910390a4611c708383836121af565b505050565b611c7d611876565b73ffffffffffffffffffffffffffffffffffffffff16611c9b611194565b73ffffffffffffffffffffffffffffffffffffffff1614611cf1576040517f08c379a0000000000000000000000000000000000000000000000000000000008152600401611ce890613330565b60405180910390fd5b565b6000600760009054906101000a900473ffffffffffffffffffffffffffffffffffffffff16905081600760006101000a81548173ffffffffffffffffffffffffffffffffffffffff021916908373ffffffffffffffffffffffffffffffffffffffff1602179055508173ffffffffffffffffffffffffffffffffffffffff168173ffffffffffffffffffffffffffffffffffffffff167f8be0079c531659141344cd1fd0a4f28419497f9722a3daafe3b4186f6b6457e060405160405180910390a35050565b8173ffffffffffffffffffffffffffffffffffffffff168373ffffffffffffffffffffffffffffffffffffffff161415611e28576040517f08c379a0000000000000000000000000000000000000000000000000000000008152600401611e1f90613250565b60405180910390fd5b80600560008573ffffffffffffffffffffffffffffffffffffffff1673ffffffffffffffffffffffffffffffffffffffff16815260200190815260200160002060008473ffffffffffffffffffffffffffffffffffffffff1673ffffffffffffffffffffffffffffffffffffffff16815260200190815260200160002060006101000a81548160ff0219169083151502179055508173ffffffffffffffffffffffffffffffffffffffff168373ffffffffffffffffffffffffffffffffffffffff167f17307eab39ab6107e8899845ad3d59bd9653f200f220920489ca2b5937696c3183604051611f199190613113565b60405180910390a3505050565b611f31848484611a0e565b611f3d848484846121b4565b611f7c576040517f08c379a0000000000000000000000000000000000000000000000000000000008152600401611f7390613150565b60405180910390fd5b50505050565b60008073ffffffffffffffffffffffffffffffffffffffff166002600084815260200190815260200160002060009054906101000a900473ffffffffffffffffffffffffffffffffffffffff1673ffffffffffffffffffffffffffffffffffffffff1614159050919050565b60606000821415612036576040518060400160405280600181526020017f3000000000000000000000000000000000000000000000000000000000000000815250905061214a565b600082905060005b600082146120685780806120519061382b565b915050600a826120619190613617565b915061203e565b60008167ffffffffffffffff81111561208457612083613961565b5b6040519080825280601f01601f1916602001820160405280156120b65781602001600182028036833780820191505090505b5090505b60008514612143576001826120cf91906136a2565b9150600a856120de9190613874565b60306120ea91906135c1565b60f81b818381518110612100576120ff613932565b5b60200101907effffffffffffffffffffffffffffffffffffffffffffffffffffffffffffff1916908160001a905350600a8561213c9190613617565b94506120ba565b8093505050505b919050565b612159838361234b565b61216660008484846121b4565b6121a5576040517f08c379a000000000000000000000000000000000000000000000000000000000815260040161219c90613150565b60405180910390fd5b505050565b505050565b505050565b60006121d58473ffffffffffffffffffffffffffffffffffffffff16612525565b1561233e578373ffffffffffffffffffffffffffffffffffffffff1663150b7a026121fe611876565b8786866040518563ffffffff1660e01b815260040161222094939291906130c7565b602060405180830381600087803b15801561223a57600080fd5b505af192505050801561226b57506040513d601f19601f820116820180604052508101906122689190612a46565b60015b6122ee573d806000811461229b576040519150601f19603f3d011682016040523d82523d6000602084013e6122a0565b606091505b506000815114156122e6576040517f08c379a00000000000000000000000000000000000000000000000000000000081526004016122dd90613150565b60405180910390fd5b805181602001fd5b63150b7a0260e01b7bffffffffffffffffffffffffffffffffffffffffffffffffffffffff1916817bffffffffffffffffffffffffffffffffffffffffffffffffffffffff191614915050612343565b600190505b949350505050565b600073ffffffffffffffffffffffffffffffffffffffff168273ffffffffffffffffffffffffffffffffffffffff1614156123bb576040517f08c379a00000000000000000000000000000000000000000000000000000000081526004016123b2906132f0565b60405180910390fd5b6123c481611f82565b15612404576040517f08c379a00000000000000000000000000000000000000000000000000000000081526004016123fb906131d0565b60405180910390fd5b612410600083836121aa565b6001600360008473ffffffffffffffffffffffffffffffffffffffff1673ffffffffffffffffffffffffffffffffffffffff168152602001908152602001600020600082825461246091906135c1565b92505081905550816002600083815260200190815260200160002060006101000a81548173ffffffffffffffffffffffffffffffffffffffff021916908373ffffffffffffffffffffffffffffffffffffffff160217905550808273ffffffffffffffffffffffffffffffffffffffff16600073ffffffffffffffffffffffffffffffffffffffff167fddf252ad1be2c89b69c2b068fc378daa952ba7f163c4a11628f55a4df523b3ef60405160405180910390a4612521600083836121af565b5050565b6000808273ffffffffffffffffffffffffffffffffffffffff163b119050919050565b828054612554906137c8565b90600052602060002090601f01602090048101928261257657600085556125bd565b82601f1061258f57805160ff19168380011785556125bd565b828001600101855582156125bd579182015b828111156125bc5782518255916020019190600101906125a1565b5b5090506125ca91906125ce565b5090565b5b808211156125e75760008160009055506001016125cf565b5090565b60006125fe6125f9846134d0565b6134ab565b9050808382526020820190508285602086028201111561262157612620613995565b5b60005b85811015612651578161263788826127e7565b845260208401935060208301925050600181019050612624565b5050509392505050565b600061266e612669846134fc565b6134ab565b90508281526020810184848401111561268a5761268961399a565b5b61269584828561375c565b509392505050565b60006126b06126ab8461352d565b6134ab565b9050828152602081018484840111156126cc576126cb61399a565b5b6126d784828561375c565b509392505050565b6000813590506126ee81613fb2565b92915050565b60008151905061270381613fb2565b92915050565b60008135905061271881613fc9565b92915050565b600082601f83011261273357612732613990565b5b81356127438482602086016125eb565b91505092915050565b60008135905061275b81613fe0565b92915050565b60008135905061277081613ff7565b92915050565b60008151905061278581613ff7565b92915050565b600082601f8301126127a05761279f613990565b5b81356127b084826020860161265b565b91505092915050565b600082601f8301126127ce576127cd613990565b5b81356127de84826020860161269d565b91505092915050565b6000813590506127f68161400e565b92915050565b600060208284031215612812576128116139a4565b5b6000612820848285016126df565b91505092915050565b60006020828403121561283f5761283e6139a4565b5b600061284d848285016126f4565b91505092915050565b60006020828403121561286c5761286b6139a4565b5b600061287a84828501612709565b91505092915050565b6000806040838503121561289a576128996139a4565b5b60006128a8858286016126df565b92505060206128b9858286016126df565b9150509250929050565b6000806000606084860312156128dc576128db6139a4565b5b60006128ea868287016126df565b93505060206128fb868287016126df565b925050604061290c868287016127e7565b9150509250925092565b600080600080608085870312156129305761292f6139a4565b5b600061293e878288016126df565b945050602061294f878288016126df565b9350506040612960878288016127e7565b925050606085013567ffffffffffffffff8111156129815761298061399f565b5b61298d8782880161278b565b91505092959194509250565b600080604083850312156129b0576129af6139a4565b5b60006129be858286016126df565b92505060206129cf8582860161274c565b9150509250929050565b600080604083850312156129f0576129ef6139a4565b5b60006129fe858286016126df565b9250506020612a0f858286016127e7565b9150509250929050565b600060208284031215612a2f57612a2e6139a4565b5b6000612a3d84828501612761565b91505092915050565b600060208284031215612a5c57612a5b6139a4565b5b6000612a6a84828501612776565b91505092915050565b600060208284031215612a8957612a886139a4565b5b600082013567ffffffffffffffff811115612aa757612aa661399f565b5b612ab3848285016127b9565b91505092915050565b600060208284031215612ad257612ad16139a4565b5b6000612ae0848285016127e7565b91505092915050565b60008060408385031215612b0057612aff6139a4565b5b6000612b0e858286016127e7565b925050602083013567ffffffffffffffff811115612b2f57612b2e61399f565b5b612b3b8582860161271e565b9150509250929050565b612b4e816136d6565b82525050565b612b5d816136fa565b82525050565b6000612b6e82613573565b612b788185613589565b9350612b8881856020860161376b565b612b91816139a9565b840191505092915050565b6000612ba78261357e565b612bb181856135a5565b9350612bc181856020860161376b565b612bca816139a9565b840191505092915050565b6000612be08261357e565b612bea81856135b6565b9350612bfa81856020860161376b565b80840191505092915050565b60008154612c13816137c8565b612c1d81866135b6565b94506001821660008114612c385760018114612c4957612c7c565b60ff19831686528186019350612c7c565b612c528561355e565b60005b83811015612c7457815481890152600182019150602081019050612c55565b838801955050505b50505092915050565b6000612c926032836135a5565b9150612c9d826139ba565b604082019050919050565b6000612cb56030836135a5565b9150612cc082613a09565b604082019050919050565b6000612cd86026836135a5565b9150612ce382613a58565b604082019050919050565b6000612cfb6025836135a5565b9150612d0682613aa7565b604082019050919050565b6000612d1e601c836135a5565b9150612d2982613af6565b602082019050919050565b6000612d416014836135a5565b9150612d4c82613b1f565b602082019050919050565b6000612d646014836135a5565b9150612d6f82613b48565b602082019050919050565b6000612d876024836135a5565b9150612d9282613b71565b604082019050919050565b6000612daa6019836135a5565b9150612db582613bc0565b602082019050919050565b6000612dcd600e836135a5565b9150612dd882613be9565b602082019050919050565b6000612df06029836135a5565b9150612dfb82613c12565b604082019050919050565b6000612e13601a836135a5565b9150612e1e82613c61565b602082019050919050565b6000612e36603e836135a5565b9150612e4182613c8a565b604082019050919050565b6000612e596020836135a5565b9150612e6482613cd9565b602082019050919050565b6000612e7c601b836135a5565b9150612e8782613d02565b602082019050919050565b6000612e9f6005836135b6565b9150612eaa82613d2b565b600582019050919050565b6000612ec26020836135a5565b9150612ecd82613d54565b602082019050919050565b6000612ee56019836135a5565b9150612ef082613d7d565b602082019050919050565b6000612f086023836135a5565b9150612f1382613da6565b604082019050919050565b6000612f2b6018836135a5565b9150612f3682613df5565b602082019050919050565b6000612f4e6021836135a5565b9150612f5982613e1e565b604082019050919050565b6000612f7160008361359a565b9150612f7c82613e6d565b600082019050919050565b6000612f946022836135a5565b9150612f9f82613e70565b604082019050919050565b6000612fb7601f836135a5565b9150612fc282613ebf565b602082019050919050565b6000612fda601b836135a5565b9150612fe582613ee8565b602082019050919050565b6000612ffd6011836135a5565b915061300882613f11565b602082019050919050565b6000613020602e836135a5565b915061302b82613f3a565b604082019050919050565b60006130436019836135a5565b915061304e82613f89565b602082019050919050565b61306281613752565b82525050565b60006130748285612c06565b91506130808284612bd5565b915061308b82612e92565b91508190509392505050565b60006130a282612f64565b9150819050919050565b60006020820190506130c16000830184612b45565b92915050565b60006080820190506130dc6000830187612b45565b6130e96020830186612b45565b6130f66040830185613059565b81810360608301526131088184612b63565b905095945050505050565b60006020820190506131286000830184612b54565b92915050565b600060208201905081810360008301526131488184612b9c565b905092915050565b6000602082019050818103600083015261316981612c85565b9050919050565b6000602082019050818103600083015261318981612ca8565b9050919050565b600060208201905081810360008301526131a981612ccb565b9050919050565b600060208201905081810360008301526131c981612cee565b9050919050565b600060208201905081810360008301526131e981612d11565b9050919050565b6000602082019050818103600083015261320981612d34565b9050919050565b6000602082019050818103600083015261322981612d57565b9050919050565b6000602082019050818103600083015261324981612d7a565b9050919050565b6000602082019050818103600083015261326981612d9d565b9050919050565b6000602082019050818103600083015261328981612dc0565b9050919050565b600060208201905081810360008301526132a981612de3565b9050919050565b600060208201905081810360008301526132c981612e06565b9050919050565b600060208201905081810360008301526132e981612e29565b9050919050565b6000602082019050818103600083015261330981612e4c565b9050919050565b6000602082019050818103600083015261332981612e6f565b9050919050565b6000602082019050818103600083015261334981612eb5565b9050919050565b6000602082019050818103600083015261336981612ed8565b9050919050565b6000602082019050818103600083015261338981612efb565b9050919050565b600060208201905081810360008301526133a981612f1e565b9050919050565b600060208201905081810360008301526133c981612f41565b9050919050565b600060208201905081810360008301526133e981612f87565b9050919050565b6000602082019050818103600083015261340981612faa565b9050919050565b6000602082019050818103600083015261342981612fcd565b9050919050565b6000602082019050818103600083015261344981612ff0565b9050919050565b6000602082019050818103600083015261346981613013565b9050919050565b6000602082019050818103600083015261348981613036565b9050919050565b60006020820190506134a56000830184613059565b92915050565b60006134b56134c6565b90506134c182826137fa565b919050565b6000604051905090565b600067ffffffffffffffff8211156134eb576134ea613961565b5b602082029050602081019050919050565b600067ffffffffffffffff82111561351757613516613961565b5b613520826139a9565b9050602081019050919050565b600067ffffffffffffffff82111561354857613547613961565b5b613551826139a9565b9050602081019050919050565b60008190508160005260206000209050919050565b600081519050919050565b600081519050919050565b600082825260208201905092915050565b600081905092915050565b600082825260208201905092915050565b600081905092915050565b60006135cc82613752565b91506135d783613752565b9250827fffffffffffffffffffffffffffffffffffffffffffffffffffffffffffffffff0382111561360c5761360b6138a5565b5b828201905092915050565b600061362282613752565b915061362d83613752565b92508261363d5761363c6138d4565b5b828204905092915050565b600061365382613752565b915061365e83613752565b9250817fffffffffffffffffffffffffffffffffffffffffffffffffffffffffffffffff0483118215151615613697576136966138a5565b5b828202905092915050565b60006136ad82613752565b91506136b883613752565b9250828210156136cb576136ca6138a5565b5b828203905092915050565b60006136e182613732565b9050919050565b60006136f382613732565b9050919050565b60008115159050919050565b60007fffffffff0000000000000000000000000000000000000000000000000000000082169050919050565b600073ffffffffffffffffffffffffffffffffffffffff82169050919050565b6000819050919050565b82818337600083830152505050565b60005b8381101561378957808201518184015260208101905061376e565b83811115613798576000848401525b50505050565b60006137a982613752565b915060008214156137bd576137bc6138a5565b5b600182039050919050565b600060028204905060018216806137e057607f821691505b602082108114156137f4576137f3613903565b5b50919050565b613803826139a9565b810181811067ffffffffffffffff8211171561382257613821613961565b5b80604052505050565b600061383682613752565b91507fffffffffffffffffffffffffffffffffffffffffffffffffffffffffffffffff821415613869576138686138a5565b5b600182019050919050565b600061387f82613752565b915061388a83613752565b92508261389a576138996138d4565b5b828206905092915050565b7f4e487b7100000000000000000000000000000000000000000000000000000000600052601160045260246000fd5b7f4e487b7100000000000000000000000000000000000000000000000000000000600052601260045260246000fd5b7f4e487b7100000000000000000000000000000000000000000000000000000000600052602260045260246000fd5b7f4e487b7100000000000000000000000000000000000000000000000000000000600052603260045260246000fd5b7f4e487b7100000000000000000000000000000000000000000000000000000000600052604160045260246000fd5b600080fd5b600080fd5b600080fd5b600080fd5b600080fd5b6000601f19601f8301169050919050565b7f4552433732313a207472616e7366657220746f206e6f6e20455243373231526560008201527f63656976657220696d706c656d656e7465720000000000000000000000000000602082015250565b7f436c656172616e63652043617264733a2055524920717565727920666f72206e60008201527f6f6e6578697374656e7420746f6b656e00000000000000000000000000000000602082015250565b7f4f776e61626c653a206e6577206f776e657220697320746865207a65726f206160008201527f6464726573730000000000000000000000000000000000000000000000000000602082015250565b7f4552433732313a207472616e736665722066726f6d20696e636f72726563742060008201527f6f776e6572000000000000000000000000000000000000000000000000000000602082015250565b7f4552433732313a20746f6b656e20616c7265616479206d696e74656400000000600082015250565b7f496e636f72726563742065746820616d6f756e74000000000000000000000000600082015250565b7f4661696c656420746f2073656e64204574686572000000000000000000000000600082015250565b7f4552433732313a207472616e7366657220746f20746865207a65726f2061646460008201527f7265737300000000000000000000000000000000000000000000000000000000602082015250565b7f4552433732313a20617070726f766520746f2063616c6c657200000000000000600082015250565b7f4e6f7420656e6f75676820657468000000000000000000000000000000000000600082015250565b7f4552433732313a2061646472657373207a65726f206973206e6f74206120766160008201527f6c6964206f776e65720000000000000000000000000000000000000000000000602082015250565b7f737465706820726573657276652066756c6c79206d696e746564000000000000600082015250565b7f4552433732313a20617070726f76652063616c6c6572206973206e6f7420746f60008201527f6b656e206f776e6572206e6f7220617070726f76656420666f7220616c6c0000602082015250565b7f4552433732313a206d696e7420746f20746865207a65726f2061646472657373600082015250565b7f69642068617320616c7265616479206265656e20636c61696d65640000000000600082015250565b7f2e6a736f6e000000000000000000000000000000000000000000000000000000600082015250565b7f4f776e61626c653a2063616c6c6572206973206e6f7420746865206f776e6572600082015250565b7f6d696e74657220646f6573206e6f74206f776e20616e20696400000000000000600082015250565b7f6e657720737570706c79206c657373207468616e20616c7265616479206d696e60008201527f7465640000000000000000000000000000000000000000000000000000000000602082015250565b7f4552433732313a20696e76616c696420746f6b656e2049440000000000000000600082015250565b7f4552433732313a20617070726f76616c20746f2063757272656e74206f776e6560008201527f7200000000000000000000000000000000000000000000000000000000000000602082015250565b50565b7f616d6f756e7420616e64206e756d626572206f6620696473206d6973736d617460008201527f6368000000000000000000000000000000000000000000000000000000000000602082015250565b7f576974686472617720616464726573732063616e6e6f74206265207a65726f00600082015250565b7f6d696e74696e6720686173207265616368656420697473206d61780000000000600082015250565b7f70726573616c652068617320656e646564000000000000000000000000000000600082015250565b7f4552433732313a2063616c6c6572206973206e6f7420746f6b656e206f776e6560008201527f72206e6f7220617070726f766564000000000000000000000000000000000000602082015250565b7f7075626c6963206d696e7420686173206e6f7420626567756e00000000000000600082015250565b613fbb816136d6565b8114613fc657600080fd5b50565b613fd2816136e8565b8114613fdd57600080fd5b50565b613fe9816136fa565b8114613ff457600080fd5b50565b61400081613706565b811461400b57600080fd5b50565b61401781613752565b811461402257600080fd5b5056fea264697066735822122045fb6950325805bc6a11140148aa58e2fbcf3aec3b3844f2e9e9f0ad9a81dbde64736f6c6343000806003368747470733a2f2f73656b6572666163746f72792e6d7970696e6174612e636c6f75642f697066732f516d64763238395147536847657864796848506f63425353565266666a4d344b716479723135465a584c763477732f",
  "linkReferences": {},
  "deployedLinkReferences": {}
}